{
  "_format": "hh3-artifact-1",
  "contractName": "Crowdfunding",
  "sourceName": "contracts/Crowdfunding.sol",
  "abi": [
    {
      "anonymous": false,
      "inputs": [
        {
          "indexed": true,
          "internalType": "uint256",
          "name": "id",
          "type": "uint256"
        },
        {
          "indexed": true,
          "internalType": "address",
          "name": "creator",
          "type": "address"
        },
        {
          "indexed": false,
          "internalType": "string",
          "name": "title",
          "type": "string"
        },
        {
          "indexed": false,
          "internalType": "uint256",
          "name": "goalAmount",
          "type": "uint256"
        },
        {
          "indexed": false,
          "internalType": "uint256",
          "name": "deadline",
          "type": "uint256"
        }
      ],
      "name": "CampaignCreated",
      "type": "event"
    },
    {
      "anonymous": false,
      "inputs": [
        {
          "indexed": true,
          "internalType": "uint256",
          "name": "campaignId",
          "type": "uint256"
        },
        {
          "indexed": true,
          "internalType": "address",
          "name": "contributor",
          "type": "address"
        },
        {
          "indexed": false,
          "internalType": "uint256",
          "name": "amount",
          "type": "uint256"
        }
      ],
      "name": "Contributed",
      "type": "event"
    },
    {
      "anonymous": false,
      "inputs": [
        {
          "indexed": true,
          "internalType": "uint256",
          "name": "campaignId",
          "type": "uint256"
        },
        {
          "indexed": true,
          "internalType": "address",
          "name": "creator",
          "type": "address"
        },
        {
          "indexed": false,
          "internalType": "uint256",
          "name": "amount",
          "type": "uint256"
        }
      ],
      "name": "FundsWithdrawn",
      "type": "event"
    },
    {
      "anonymous": false,
      "inputs": [
        {
          "indexed": true,
          "internalType": "uint256",
          "name": "campaignId",
          "type": "uint256"
        },
        {
          "indexed": true,
          "internalType": "address",
          "name": "contributor",
          "type": "address"
        },
        {
          "indexed": false,
          "internalType": "uint256",
          "name": "amount",
          "type": "uint256"
        }
      ],
      "name": "Refunded",
      "type": "event"
    },
    {
      "inputs": [],
      "name": "campaignCount",
      "outputs": [
        {
          "internalType": "uint256",
          "name": "",
          "type": "uint256"
        }
      ],
      "stateMutability": "view",
      "type": "function"
    },
    {
      "inputs": [
        {
          "internalType": "uint256",
          "name": "",
          "type": "uint256"
        }
      ],
      "name": "campaigns",
      "outputs": [
        {
          "internalType": "uint256",
          "name": "id",
          "type": "uint256"
        },
        {
          "internalType": "address payable",
          "name": "creator",
          "type": "address"
        },
        {
          "internalType": "string",
          "name": "title",
          "type": "string"
        },
        {
          "internalType": "string",
          "name": "description",
          "type": "string"
        },
        {
          "internalType": "string",
          "name": "category",
          "type": "string"
        },
        {
          "internalType": "uint256",
          "name": "goalAmount",
          "type": "uint256"
        },
        {
          "internalType": "uint256",
          "name": "deadline",
          "type": "uint256"
        },
        {
          "internalType": "uint256",
          "name": "raised",
          "type": "uint256"
        },
        {
          "internalType": "uint256",
          "name": "backerCount",
          "type": "uint256"
        },
        {
          "internalType": "bool",
          "name": "withdrawn",
          "type": "bool"
        }
      ],
      "stateMutability": "view",
      "type": "function"
    },
    {
      "inputs": [
        {
          "internalType": "uint256",
          "name": "campaignId",
          "type": "uint256"
        }
      ],
      "name": "contribute",
      "outputs": [],
      "stateMutability": "payable",
      "type": "function"
    },
    {
      "inputs": [
        {
          "internalType": "uint256",
          "name": "",
          "type": "uint256"
        },
        {
          "internalType": "address",
          "name": "",
          "type": "address"
        }
      ],
      "name": "contributions",
      "outputs": [
        {
          "internalType": "uint256",
          "name": "",
          "type": "uint256"
        }
      ],
      "stateMutability": "view",
      "type": "function"
    },
    {
      "inputs": [
        {
          "internalType": "string",
          "name": "title",
          "type": "string"
        },
        {
          "internalType": "string",
          "name": "description",
          "type": "string"
        },
        {
          "internalType": "string",
          "name": "category",
          "type": "string"
        },
        {
          "internalType": "uint256",
          "name": "goalAmount",
          "type": "uint256"
        },
        {
          "internalType": "uint256",
          "name": "durationDays",
          "type": "uint256"
        }
      ],
      "name": "createCampaign",
      "outputs": [
        {
          "internalType": "uint256",
          "name": "",
          "type": "uint256"
        }
      ],
      "stateMutability": "nonpayable",
      "type": "function"
    },
    {
      "inputs": [
        {
          "internalType": "uint256",
          "name": "id",
          "type": "uint256"
        }
      ],
      "name": "getCampaign",
      "outputs": [
        {
          "components": [
            {
              "internalType": "uint256",
              "name": "id",
              "type": "uint256"
            },
            {
              "internalType": "address payable",
              "name": "creator",
              "type": "address"
            },
            {
              "internalType": "string",
              "name": "title",
              "type": "string"
            },
            {
              "internalType": "string",
              "name": "description",
              "type": "string"
            },
            {
              "internalType": "string",
              "name": "category",
              "type": "string"
            },
            {
              "internalType": "uint256",
              "name": "goalAmount",
              "type": "uint256"
            },
            {
              "internalType": "uint256",
              "name": "deadline",
              "type": "uint256"
            },
            {
              "internalType": "uint256",
              "name": "raised",
              "type": "uint256"
            },
            {
              "internalType": "uint256",
              "name": "backerCount",
              "type": "uint256"
            },
            {
              "internalType": "bool",
              "name": "withdrawn",
              "type": "bool"
            }
          ],
          "internalType": "struct Crowdfunding.Campaign",
          "name": "",
          "type": "tuple"
        }
      ],
      "stateMutability": "view",
      "type": "function"
    },
    {
      "inputs": [
        {
          "internalType": "uint256",
          "name": "campaignId",
          "type": "uint256"
        },
        {
          "internalType": "address",
          "name": "contributor",
          "type": "address"
        }
      ],
      "name": "getContribution",
      "outputs": [
        {
          "internalType": "uint256",
          "name": "",
          "type": "uint256"
        }
      ],
      "stateMutability": "view",
      "type": "function"
    },
    {
      "inputs": [
        {
          "internalType": "uint256",
          "name": "campaignId",
          "type": "uint256"
        }
      ],
      "name": "refund",
      "outputs": [],
      "stateMutability": "nonpayable",
      "type": "function"
    },
    {
      "inputs": [
        {
          "internalType": "uint256",
          "name": "campaignId",
          "type": "uint256"
        }
      ],
      "name": "withdrawFunds",
      "outputs": [],
      "stateMutability": "nonpayable",
      "type": "function"
    }
  ],
  "bytecode": "0x6080604052348015600e575f5ffd5b506113a38061001c5f395ff3fe608060405260043610610084575f3560e01c80635598f8cc116100575780635598f8cc1461014a5780637274e30d14610176578063980f2e661461018a578063c1cbbca7146101a9578063e081dbf9146101bc575f5ffd5b8063141961bc14610088578063155dd5ee146100c6578063278ecde1146100e75780633d891f5914610106575b5f5ffd5b348015610093575f5ffd5b506100a76100a2366004610e95565b6101db565b6040516100bd9a99989796959493929190610eda565b60405180910390f35b3480156100d1575f5ffd5b506100e56100e0366004610e95565b6103c8565b005b3480156100f2575f5ffd5b506100e5610101366004610e95565b61057d565b348015610111575f5ffd5b5061013c610120366004610f5c565b600260209081525f928352604080842090915290825290205481565b6040519081526020016100bd565b348015610155575f5ffd5b50610169610164366004610e95565b61072b565b6040516100bd9190610f95565b348015610181575f5ffd5b5061013c5f5481565b348015610195575f5ffd5b5061013c6101a43660046110a2565b6109cc565b6100e56101b7366004610e95565b610ce1565b3480156101c7575f5ffd5b5061013c6101d6366004610f5c565b610e6c565b600160208190525f91825260409091208054918101546002820180546001600160a01b03909216929161020d9061114f565b80601f01602080910402602001604051908101604052809291908181526020018280546102399061114f565b80156102845780601f1061025b57610100808354040283529160200191610284565b820191905f5260205f20905b81548152906001019060200180831161026757829003601f168201915b5050505050908060030180546102999061114f565b80601f01602080910402602001604051908101604052809291908181526020018280546102c59061114f565b80156103105780601f106102e757610100808354040283529160200191610310565b820191905f5260205f20905b8154815290600101906020018083116102f357829003601f168201915b5050505050908060040180546103259061114f565b80601f01602080910402602001604051908101604052809291908181526020018280546103519061114f565b801561039c5780601f106103735761010080835404028352916020019161039c565b820191905f5260205f20905b81548152906001019060200180831161037f57829003601f168201915b505050600584015460068501546007860154600887015460099097015495969295919450925060ff168a565b5f5481106103f15760405162461bcd60e51b81526004016103e890611187565b60405180910390fd5b5f818152600160208190526040909120908101546001600160a01b0316331461045c5760405162461bcd60e51b815260206004820152601960248201527f4f6e6c792063726561746f722063616e2077697468647261770000000000000060448201526064016103e8565b8060050154816007015410156104a75760405162461bcd60e51b815260206004820152601060248201526f11dbd85b081b9bdd081c995858da195960821b60448201526064016103e8565b600981015460ff16156104f05760405162461bcd60e51b815260206004820152601160248201527020b63932b0b23c903bb4ba34323930bbb760791b60448201526064016103e8565b60098101805460ff191660019081179091556007820154908201546040516001600160a01b039091169082156108fc029083905f818181858888f1935050505015801561053f573d5f5f3e3d5ffd5b50604051818152339084907ff440aec6b52895984d061d622e6edeba6210f7c3e059be920663140c084560d7906020015b60405180910390a3505050565b5f54811061059d5760405162461bcd60e51b81526004016103e890611187565b5f81815260016020526040902060068101544210156105f65760405162461bcd60e51b815260206004820152601560248201527443616d706169676e207374696c6c2061637469766560581b60448201526064016103e8565b806005015481600701541061064d5760405162461bcd60e51b815260206004820152601b60248201527f476f616c2077617320726561636865642c206e6f20726566756e64000000000060448201526064016103e8565b5f828152600260209081526040808320338452909152902054806106b35760405162461bcd60e51b815260206004820152601960248201527f4e6f20636f6e747269627574696f6e20746f20726566756e640000000000000060448201526064016103e8565b5f83815260026020908152604080832033808552925280832083905551909183156108fc02918491818181858888f193505050501580156106f6573d5f5f3e3d5ffd5b50604051818152339084907f7ca5472b7ea78c2c0141c5a12ee6d170cf4ce8ed06be3d22c8252ddfc7a6a2c490602001610570565b6107856040518061014001604052805f81526020015f6001600160a01b031681526020016060815260200160608152602001606081526020015f81526020015f81526020015f81526020015f81526020015f151581525090565b5f5482106107a55760405162461bcd60e51b81526004016103e890611187565b5f8281526001602081815260409283902083516101408101855281548152928101546001600160a01b03169183019190915260028101805492939192918401916107ee9061114f565b80601f016020809104026020016040519081016040528092919081815260200182805461081a9061114f565b80156108655780601f1061083c57610100808354040283529160200191610865565b820191905f5260205f20905b81548152906001019060200180831161084857829003601f168201915b5050505050815260200160038201805461087e9061114f565b80601f01602080910402602001604051908101604052809291908181526020018280546108aa9061114f565b80156108f55780601f106108cc576101008083540402835291602001916108f5565b820191905f5260205f20905b8154815290600101906020018083116108d857829003601f168201915b5050505050815260200160048201805461090e9061114f565b80601f016020809104026020016040519081016040528092919081815260200182805461093a9061114f565b80156109855780601f1061095c57610100808354040283529160200191610985565b820191905f5260205f20905b81548152906001019060200180831161096857829003601f168201915b50505091835250506005820154602082015260068201546040820152600782015460608201526008820154608082015260099091015460ff16151560a09091015292915050565b5f5f8311610a1c5760405162461bcd60e51b815260206004820152601e60248201527f476f616c206d7573742062652067726561746572207468616e207a65726f000060448201526064016103e8565b5f8211610a755760405162461bcd60e51b815260206004820152602160248201527f4475726174696f6e206d757374206265206174206c65617374206f6e652064616044820152607960f81b60648201526084016103e8565b87610aba5760405162461bcd60e51b81526020600482015260156024820152745469746c652063616e6e6f7420626520656d70747960581b60448201526064016103e8565b5f80548180610ac8836111d2565b9091555090505f610adc84620151806111ea565b610ae69042611201565b9050604051806101400160405280838152602001336001600160a01b031681526020018c8c8080601f0160208091040260200160405190810160405280939291908181526020018383808284375f92019190915250505090825250604080516020601f8d018190048102820181019092528b815291810191908c908c90819084018382808284375f92019190915250505090825250604080516020601f8b0181900481028201810190925289815291810191908a908a90819084018382808284375f92018290525093855250505060208083018990526040808401869052606084018390526080840183905260a0909301829052858252600180825291839020845181559084015191810180546001600160a01b0319166001600160a01b0390931692909217909155908201516002820190610c229082611274565b5060608201516003820190610c379082611274565b5060808201516004820190610c4c9082611274565b5060a0820151600582015560c0820151600682015560e082015160078201556101008201516008820155610120909101516009909101805460ff1916911515919091179055604051339083907fdc26653af5b99b2da33e2ad69ee6600d9aeccc82b034501db4338309615ca23890610ccb908f908f908b90889061132f565b60405180910390a3509998505050505050505050565b5f548110610d015760405162461bcd60e51b81526004016103e890611187565b5f81815260016020526040902060068101544210610d565760405162461bcd60e51b815260206004820152601260248201527110d85b5c185a59db881a185cc8195b99195960721b60448201526064016103e8565b5f3411610db45760405162461bcd60e51b815260206004820152602660248201527f436f6e747269627574696f6e206d7573742062652067726561746572207468616044820152656e207a65726f60d01b60648201526084016103e8565b5f8281526002602090815260408083203384529091528120549003610dea57600881018054905f610de4836111d2565b91905055505b5f82815260026020908152604080832033845290915281208054349290610e12908490611201565b9250508190555034816007015f828254610e2c9190611201565b9091555050604051348152339083907fb2ed2e021651f85a4754a44651fc09ac5141bc0329ce4dfe8dd712a5d04a8b399060200160405180910390a35050565b5f8281526002602090815260408083206001600160a01b03851684529091529020545b92915050565b5f60208284031215610ea5575f5ffd5b5035919050565b5f81518084528060208401602086015e5f602082860101526020601f19601f83011685010191505092915050565b8a81526001600160a01b038a166020820152610140604082018190525f90610f049083018b610eac565b8281036060840152610f16818b610eac565b90508281036080840152610f2a818a610eac565b60a0840198909852505060c081019490945260e084019290925261010083015215156101209091015295945050505050565b5f5f60408385031215610f6d575f5ffd5b8235915060208301356001600160a01b0381168114610f8a575f5ffd5b809150509250929050565b60208152815160208201525f6020830151610fbb60408401826001600160a01b03169052565b5060408301516101406060840152610fd7610160840182610eac565b90506060840151601f19848303016080850152610ff48282610eac565b9150506080840151601f198483030160a08501526110128282610eac565b91505060a084015160c084015260c084015160e084015260e084015161010084015261010084015161012084015261012084015161105561014085018215159052565b509392505050565b5f5f83601f84011261106d575f5ffd5b50813567ffffffffffffffff811115611084575f5ffd5b60208301915083602082850101111561109b575f5ffd5b9250929050565b5f5f5f5f5f5f5f5f60a0898b0312156110b9575f5ffd5b883567ffffffffffffffff8111156110cf575f5ffd5b6110db8b828c0161105d565b909950975050602089013567ffffffffffffffff8111156110fa575f5ffd5b6111068b828c0161105d565b909750955050604089013567ffffffffffffffff811115611125575f5ffd5b6111318b828c0161105d565b999c989b509699959896976060870135966080013595509350505050565b600181811c9082168061116357607f821691505b60208210810361118157634e487b7160e01b5f52602260045260245ffd5b50919050565b60208082526017908201527f43616d706169676e20646f6573206e6f74206578697374000000000000000000604082015260600190565b634e487b7160e01b5f52601160045260245ffd5b5f600182016111e3576111e36111be565b5060010190565b8082028115828204841417610e8f57610e8f6111be565b80820180821115610e8f57610e8f6111be565b634e487b7160e01b5f52604160045260245ffd5b601f82111561126f57805f5260205f20601f840160051c8101602085101561124d5750805b601f840160051c820191505b8181101561126c575f8155600101611259565b50505b505050565b815167ffffffffffffffff81111561128e5761128e611214565b6112a28161129c845461114f565b84611228565b6020601f8211600181146112d4575f83156112bd5750848201515b5f19600385901b1c1916600184901b17845561126c565b5f84815260208120601f198516915b8281101561130357878501518255602094850194600190920191016112e3565b508482101561132057868401515f19600387901b60f8161c191681555b50505050600190811b01905550565b60608152836060820152838560808301375f608085830101525f6080601f19601f87011683010190508360208301528260408301529594505050505056fea2646970667358221220193ec783673aa5b91a27928e8fb34026e43c75d449443673c7d0c8ced601c4fc64736f6c634300081c0033",
  "linkReferences": {},
  "deployedLinkReferences": {},
  "immutableReferences": {},
  "inputSourceName": "project/contracts/Crowdfunding.sol",
  "buildInfoId": "solc-0_8_28-e6f31b6227b557c1a6209580c91f405091f0b816"
}